:020000040800F2
:100000009044002081020008DB1D00082B1B000823
:10001000D91D0008C50900080123000800000000E0
:10002000000000000000000000000000C101000806
:10003000710B0008000000001D020008F11F0008FD
:100040009B0200089B0200089B0200089B0200081C
:100050009B0200089B0200089B0200089B0200080C
:100060009B0200089B0200089B0200089B020008FC
:100070009B0200089B0200089B0200089B020008EC
:100080009B0200089B0200089B0200089B020008DC
:100090009B0200089B0200089B0200089B020008CC
:1000A0009B0200089B0200089B0200089B020008BC
:1000B0009B0200089B0200089B0200089B020008AC
:1000C0009B0200089B0200089B0200089B0200089C
:1000D0009B0200089B0200089B0200089B0200088C
:1000E0009B0200089B0200089B0200089B0200087C
:1000F0009B0200089B0200089B0200089B0200086C
:100100009B0200089B0200089B0200089B0200085B
:100110009B0200089B0200089B0200089B0200084B
:100120009B0200089B0200089B0200089B0200083B
:100130009B0200089B0200089B0200089B0200082B
:100140009B0200089B0200089B0200089B0200081B
:100150009B0200089B0200089B0200089B0200080B
:100160009B0200089B0200089B0200089B020008FB
:100170009B0200089B0200089B0200080000000090
:100180009B0200089B0200089B0200089B020008DB
:100190009B0200089B0200089B0200089B020008CB
:1001A0009B0200089B0200089B020008DFF80CD0AD
:1001B00000F050FB00480047712C000890440020DC
:1001C0002C4B19680868B0E8F04F80F30988BFF33A
:1001D0006F8F4FF0000080F311887047000000001F
:1001E00008480068006880F308884FF0000080F33A
:1001F000148862B661B6BFF34F8FBFF36F8F00DF15
:1002000000BF00BF08ED00E0DFF80C00016841F41A
:1002100070010160704700BF88ED00E0EFF30980D6
:10022000BFF36F8F134B1A681EF0100F08BF20ED3D
:10023000108A20E9F04F106009B44FF0500080F3AD
:100240001188BFF34F8FBFF36F8F03F0B7F84FF0F4
:10025000000080F3118809BC19680868B0E8F04F05
:100260001EF0100F08BFB0EC108A80F30988BFF3AE
:100270006F8F704720000020EFF30580704700006B
:100280000648804706480047FEE7FEE7FEE7FEE730
:10029000FEE7FEE7FEE7FEE7FEE7FEE79120000847
:1002A000AD0100082DE9F05F0546002092469B460F
:1002B00088460646814640241BE02846414647467C
:1002C000224600F014F953465A46C01A914110D301
:1002D00011461846224600F0FBF82D1A67EB01087C
:1002E0004F4622460120002100F0F2F817EB0009EA
:1002F0004E41201EA4F10104DFDC484631462A4667
:100300004346BDE8F09F40EA01039B0703D009E0A4
:1003100008C9121F08C0042AFAD203E011F8013BF1
:1003200000F8013B521EF9D27047D2B201E000F84A
:10033000012B491EFBD270470022F6E710B5134689
:100340000A4604461946FFF7F0FF204610BD2DE986
:10035000FE4F81EA030404F0004421F000410094C0
:100360004FF0000B23F0004350EA01045ED052EA44
:1003700003045BD0C3F30A54C1F30A552C44A4F21E
:10038000F3340194A0FB0254C1F3130141F4801132
:10039000C3F3130343F4801301FB024400FB034E39
:1003A000840A970A44EA815447EA8357A4FB076802
:1003B00002958D0A05FB07854FEA932C04FB0C542C
:1003C0002705029D4FEA065847EA1637B5EB0805A0
:1003D0006EEB070C870E920E47EA811742EA8312F2
:1003E000A7FB0201B6EB0B0164EB00042B0D43EA03
:1003F0000C335E1844EB1C50DA465146E7FB020111
:10040000C5F313044FEA0B3343EA14534FEA0432A3
:10041000019C43EA0603A4F10C040294009CCDE97C
:1004200000B400F083F803B0BDE8F08F002001466F
:10043000F9E70EB540F2334102910021CDE90011F8
:100440000A460B4600F072F803B000BD00F000420F
:1004500030F000400AD0C10D01F56071C0F3160004
:1004600042EA0151C208400711437047002001468B
:100470007047000030B5041E71F1000404DB4FF03A
:100480000044404264EB0101141E73F1000405DBDB
:100490001C464FF00043524263EB04038B4208BFFB
:1004A000824230BD30B50B46014600202022012497
:1004B00009E021FA02F59D4205D303FA02F5491B32
:1004C00004FA02F52844151EA2F10102F1DC30BD48
:1004D000202A04DB203A00FA02F100207047914004
:1004E000C2F1200320FA03F3194390407047202AF9
:1004F00004DB203A21FA02F00021704721FA02F3CE
:10050000D040C2F12002914008431946704710B50F
:10051000141E73F1000408DA401C41F10001921826
:100520005B411A4301D120F0010010BD2DE9F04DCF
:1005300092469B4611B1B1FA81F202E0B0FA80F224
:1005400020329046FFF7C4FF04460F4640EA0A00F7
:1005500041EA0B0153465A46084313D0114653EA69
:10056000010019D0C8F140025046FFF7C0FF054610
:100570000E46504659464246FFF7AAFF084305D0AB
:10058000012004E020463946BDE8F08D00200543F7
:1005900046EAE0762C4337430A986305E40AA0EB69
:1005A00008000022FD0A44EA47540A3002D5002020
:1005B0000146E9E7010510196941DDE9084500191F
:1005C0006941BDE8F04DA2E72DE9FE4F804681EA82
:1005D0000300C00F0C46009021F0004123F00045BD
:1005E000B8EB0200A94105D24046214690461C4680
:1005F0000B46024623F00040104347D0270DC7F3B7
:100600000A00C3F30A510290401A019040286BDAA5
:10061000C3F3130040F4801B0098924620B10023DE
:10062000D2EB030A63EB0B0B01985946C0F1400271
:100630005046FFF74DFF06460D4650465946019A73
:1006400000F01AF910EB08006141002487EA11520A
:1006500084EAE7731A4340D0009A62B3019A012AF0
:100660004FEA075215DC001B61EB02014FF000421C
:1006700002EA0752CDE90042001C41F580113246E2
:100680002B46FFF753FF03B0BDE8F08F40462146ED
:10069000F9E7001B61EB0201001C41F58013001813
:1006A0005B412018A2F5001747EB030140EAD57023
:1006B000B6196D4111E06D084FEA360645EAC0757E
:1006C0004FEA0752001B61EB0201001C41F580114B
:1006D00049084FEA30000019514132462B4603B019
:1006E000BDE8F04FFFF713BF009801224000002340
:1006F000D0EB020263EBE073009821464FEAE0740E
:10070000B8EB000061EB0401E9E783F000435BE72D
:1007100081F0004158E72DE9F04D81EA030404F02F
:10072000004B21F0004514464FF0000A23F0004131
:1007300050EA050220D054EA01021DD0C5F30A5741
:100740000246C5F31303C1F31300C1F30A5640F484
:10075000801543F48013A7EB0608101BD64608F259
:10076000FD3873EB050002D308F1010801E092188F
:100770005B41B8F1000F03DA00200146BDE8F08DBF
:1007800000204FF48011064684460EE0171B73EBE1
:10079000050705D3121B63EB050306434CEA010C66
:1007A00049084FEA300092185B4150EA0107EDD149
:1007B00052EA030012D082EA040083EA05010843EA
:1007C00005D0101BAB4106D20122002306E0002217
:1007D0004FF0004302E06FF0010253101AEB0600E5
:1007E0004CEB085110EB0A0041EB0B01BDE8F04D5A
:1007F000FFF78DBEC1F30A52C1F3130140F2FF337C
:1008000041F480119A4202DA00200146704740F21A
:1008100033439A42A2F2334202DC5242FFF767BEF0
:10082000FFF756BE30B5041E71F1000404DB4FF033
:100830000044404264EB0101141E73F1000405DB27
:100840001C464FF00043524263EB0403994208BF39
:10085000904230BD064C074D06E0E06840F00103D1
:1008600094E8070098471034AC42F6D3FFF7A2FC97
:100870004C3800086C380008202A06DBCB17203AD9
:1008800041FA02F043EAE07306E041FA02F3D04095
:10089000C2F120029140084319467047464910B5FD
:1008A0004A6822F440324A604A6843681A434A6000
:1008B00001684A6822F480724A6001684A680369E4
:1008C00042EA03224A6001684A6822F040724A60A4
:1008D00001684A6883681A434A6001688A6822F49A
:1008E00000628A6001688A68C3681A438A60816A04
:1008F0006FF07062D14201688A6822F070628A608B
:1009000001688A680CD0836A1A438A6001688A6821
:1009100022F040528A6001688A68C36A1A4301E083
:1009200022F040528A6001688A6822F002028A60DE
:1009300001688A68037E42EA43028A6090F82010C8
:10094000002901684A680FD042F400624A600168D9
:100950004A6822F460424A6001684A68174C436A58
:1009600004EB43331A4301E022F400624A60016859
:10097000CA6A22F47002CA620168CA6A838B104C88
:1009800004EB03531A43CA6201688A6822F40072B6
:100990008A6001688A6890F8303042EA43228A60AF
:1009A00001688A6822F480628A6001688A68406906
:1009B00042EA8020886010BD0023014000E0FFFF74
:1009C0000000F0FFFEE70000094808B5016841F0AB
:1009D00008010160006800F00800009000F00CF8C9
:1009E0000122BDE808400421024800F0B8BB000025
:1009F000303802400010024000B585B0042000905D
:100A000001200190022003906946024800F0B8FAE4
:100A100005B000BD001002402DE9F0410025154E43
:100A20002C4601270421304600F094FB0028F9D021
:100A3000282000F09FF80421304600F08BFB0128AD
:100A40000BD0C4F1070007FA00F08543641CE4B240
:100A5000082CE7D32846BDE8F0810421304600F099
:100A600079FB0128F9D0C4F1070007FA00F0C0B201
:100A70000543EBE70010024030B585B00446FFF7B0
:100A8000BBFF394D00220421284600F068FB1220EC
:100A900000F064FA01220421284600F060FB1E20C9
:100AA00000F068F8042000900020019001200290DE
:100AB0006946284600F064FA0421284600F04AFB03
:100AC000F0BB0421284600F045FB0028F9D00421A2
:100AD000284600F03FFB0128F9D0FFF79DFF20706A
:100AE000FFF79AFF6070FFF797FFA070FFF794FF82
:100AF000E070FFF791FF2071FFF77EFF01220421D4
:100B0000284600F02CFB2378657803EBC30000EB4C
:100B1000031005EB800000EE100ADFED140AB8EEBA
:100B2000400A80EE201A84ED021AA178E27801EBE7
:100B3000C10000EB011002EB800000EE100A00E0A3
:100B40000FE0B8EE400A58191144084480EE201A0C
:100B5000C0B284ED031A2179814202D1002005B090
:100B600030BD0120FBE70000001002400000C84239
:100B70007047000070B54FF6FA75281A84B208481D
:100B800000F0E6FE064801684C62006801E0416A38
:100B90008CB2AC42FBD3BDE87040014800F0EABE25
:100BA000200300207047000078B50024009490F8DE
:100BB0003C20012A19D0012280F83C200A68072332
:100BC0000568092A13D9EE680A3A02EB42029340FB
:100BD0009E43EE600B788A680A3B03EB43039A401E
:100BE0000368DD682A43DA6010E0022078BD2E69D0
:100BF00002EB420293409E432E610B788A6803EB1E
:100C000043039A4003681D692A431A614A681F23F7
:100C1000072A13D205686E6B521E02EB82029340C4
:100C20009E436E630A8893B20A79521E02EB8202D7
:100C300093400268556B2B43536327E005680D2AE8
:100C400012D22E6BD21F02EB820293409E432E6380
:100C50000B790A88DB1F92B203EB83039A40036887
:100C60001D6B2A431A6311E0EE6A0D3A02EB820211
:100C700093409E43EE620B790A880D3B92B203EBE0
:100C800083039A400368DD6A2A43DA621B4B0568D6
:100C9000194A9D420AD10D68122D07D1556825F4D5
:100CA00000055560556845F48005556005689D420E
:100CB0001DD1134D0B68AB4201D0112B17D15368D6
:100CC00023F480035360536843F4000353600968BE
:100CD000A9420CD10B490C4A0968B1FBF2F101EBB6
:100CE0008101490000E0491E00910029FBD180F8F4
:100CF0003C40002078BD000000230140002001405E
:100D0000120000101C00002040420F00006C7047D1
:100D10000068C06C704770B504004FF0000503D048
:100D2000206C002610B107E0012070BD204600F0C5
:100D30001DF8666484F83C60206CC00610D4206CFA
:100D400020F4885040F0020020642046FFF7A6FD02
:100D50006664206C20F0020040F00100206400E096
:100D6000012584F83C60284670BD000010B586B0AF
:100D7000044614216846FFF7DFFA114920688842CB
:100D80001CD110480021026842F4807202600068A1
:100D900000F4807005900B481438026842F001029C
:100DA0000260006800F00100059010200090032010
:100DB000CDE901016946044800F0E2F806B010BD33
:100DC0000020014044380240000002402DE9F0417B
:100DD000044600680D4681684FF0000749050BD5B1
:100DE0008068C00508D5206C40F02000206484F89D
:100DF0003C700120BDE8F08100F0B6F906460FE036
:100E0000681C0DD025B100F0AFF9801BA84207D9AE
:100E1000206C40F00400206484F83C700320E9E773
:100E2000206800688007EBD521686FF01200086029
:100E3000206C40F4007020642068816811F0405FED
:100E400013D1217E89B9C16A11F4700F02D0806874
:100E500040050AD4206C20F480702064206CC0040B
:100E600003D4206C40F0010020640020C2E70000A1
:100E700018B50021009190F83C20012A07D00122EA
:100E800080F83C2002689368DB0702D011E0022062
:100E900018BD936843F0010393602A4A2A4B1268F5
:100EA000B2FBF3F202EB420200E0521E0092002A73
:100EB000FBD102689368DB0741D0036C40F2016408
:100EC000A34343F48073036453685B0505D5036C47
:100ED00023F4005343F480530364036CDB0404D510
:100EE000436C23F00603436400E0416480F83C1047
:100EF00016496FF02203136049680068CA06144956
:100F000006D088421BD1816811F0405F13D016E0F3
:100F10008842F8D00F4A904203D1D1F80423D20678
:100F2000F1D00D4A90420AD1D1F8041301F01F010B
:100F30001029E8D303E0816841F0804181600020FE
:100F400018BD00001C00002040420F00002301409B
:100F500000200140002101400022014070B50446FC
:100F600000F002F90546601C02D0044800780444F1
:100F700000F0FAF8401BA042FAD370BD1000002028
:100F80002DE9F84F00224FF0010803254FF00F0E16
:100F90000B6808FA02F42340A3426ED14E68012E7A
:100FA00005D0022E03D0112E01D0122E12D1866848
:100FB0004FEA420C05FA0CF7BE43CF6807FA0CF76C
:100FC000374387604668A6430C79C4F30014944005
:100FD00034434460C668570005FA07FC8C6826EA6B
:100FE0000C06BC403443C4604C68022C01D0122C67
:100FF00013D1D40800EB8404A346D4F820905407FE
:101000004FEAD46A0EFA0AF629EA06090E6906FAC8
:101010000AF646EA0906CBF8206004680E7924EA4D
:101020000C0406F00306BE40264306604C68E4004C
:101030006FD53B4C266846F480462660246822F033
:10104000030604F480440094364C3444A446D4F897
:1010500008489607360F0EFA06F7BC43324FB842DF
:1010600001D100272EE0314FB84201D1012729E0FC
:101070002F4FB84202D1022724E04AE02D4FB84258
:1010800001D103271EE02C4FB84201D1042719E0FB
:101090002A4FB84201D1052714E0294FB84201D1A7
:1010A00006270FE0274FB84201D107270AE0264F55
:1010B000B84201D1082705E0244FB84201D10927E1
:1010C00000E00A27B7402743CCF80878204E346860
:1010D0004F689C43FF0300D51C4334601C4E361DF3
:1010E00034684F689C43BF0300D51C433460184EDE
:1010F000083634684F689C43FF0200D51C433460B7
:10110000134E0C3634684F689C43BF0200D51C4315
:101110003460521C102AFFF43BAFBDE8F88F00008A
:101120004438024000300140000002400004024008
:1011300000080240000C024000100240001402406F
:1011400000180240001C024000200240002402401F
:10115000003C01400069084000D0012070470AB1FE
:10116000816170470904FBE701488068704700000F
:1011700010000020024881680278114481607047A5
:10118000100000200B4810B5016841F400710160A7
:10119000016841F480610160016841F4807101607F
:1011A000032000F065F80F2000F006F800F024F8A6
:1011B000002010BD003C024070B50D4D04464FF4B8
:1011C0007A712878B1FBF0F00A490968B1FBF0F0B8
:1011D00000F032FB48B9102C07D200222146501EE5
:1011E00000F026F800206C6070BD012070BD00008A
:1011F000100000201C0000200C4882B0016841F45F
:1012000080410160006800F4804000900748001FA2
:10121000016841F0805101600068002200F08050B8
:1012200000900F21901E02B000F002B84438024036
:10123000F0B40E4B1B680C46C3F30223C3F1070541
:10124000042D00D90425191D072901D2002300E02F
:10125000DB1E012606FA05F1491E214099409E40F9
:10126000761E16403143F0BC01F05CB80CED00E096
:10127000064900F0070208684FF6FF03184040EAED
:101280000220034A10430860704700000CED00E0A4
:101290000000FA052DE9F8431748016841F0805134
:1012A00001600068154F00F08050012600903E64F8
:1012B000FFF75AFF05464FF47A78114C05E000BF5E
:1012C000FFF752FF401B40450DD86068C003F7D5BB
:1012D0007E64FFF749FF0546464607E0FFF744FFF7
:1012E000401BB04202D90320BDE8F8836068800348
:1012F000F4D50020F8E700004038024000000E421C
:10130000007000402DE9F0470E46050065D0DFF87B
:101310001481D8F80000F7B200F00F00B04207D2F5
:1013200088F80070D8F8000000F00F00B04254D1E7
:1013300028683D4C810712D5400703D5206840F44A
:10134000E05020602878000703D5206840F4604012
:1013500020602068A96820F0F00008432060287809
:10136000C0072DD0304968680839012812D00228FA
:1013700013D0032811D00968890700292DDA2168C4
:1013800021F0030101432160FFF7EEFE814641F2A7
:10139000883A0EE009688903EFE709688901ECE7FC
:1013A000FFF7E2FEA0EB0901514502D90320BDE899
:1013B000F0872068696800F00C00B0EB810FEFD176
:1013C000D8F80010404601F00F01B14207D907706C
:1013D000006800F00F00B04201D00120E7E7287854
:1013E000400705D52068E96820F4E05008432060F4
:1013F0002878000706D52068296920F4604040EA73
:10140000C100206000F038F82168084AC1F30311D8
:10141000515CC8400649086006480068FFF7CCFEEA
:101420000020C4E7003C02400838024000380008B1
:101430001C000020140000200448054900680968C9
:10144000044AC1F38221515CC84070471C0000204F
:101450000838024010380008044805490068096847
:10146000044AC1F34231515CC84070471C0000205F
:101470000838024010380008154810B5006810F010
:101480000C02144813D01449042A0FD0082A0ED194
:101490000F4C241F2268236802F03F025B0207D52D
:1014A0002068C0F38810A0FB010106E0084610BDCB
:1014B0002168C1F38811A1FB00010023FEF7F2FEB1
:1014C0002168C1F30141491C4900B0FBF1F010BD96
:1014D000083802400024F40040787D012DE9F84FDF
:1014E00004006ED02078DFF83C93C007A9F1040512
:1014F0004AD009F104000168C1F38101012908D033
:101500000068C0F3810002280AD1D9F80000400227
:1015100006D52868800337D560680028E1D033E01D
:101520006068B0F5803F10D0B0F5A02F286810D0CB
:1015300020F480302860286820F4802028606068CB
:10154000A8B1FFF711FE06460DE0286840F4803090
:10155000F4E740F480202860F7E700BFFFF704FEBF
:10156000801B642873D828688003F7D50CE0FFF748
:10157000FBFD064605E000BFFFF7F6FD801B642873
:10158000F0D828688003F7D42078DFF89C828007A1
:101590004FF0000A3ED5A348001D016811F00C0F62
:1015A00008D00068C0F3810002280BD1D9F80000F0
:1015B000400207D42868800716D5E068012800D1CA
:1015C00012E02BE1E068B8B10120C8F80000FFF795
:1015D000CBFD064605E000BFFFF7C6FD801B0228D5
:1015E000C0D828688007F7D52868216920F0F8005E
:1015F00040EAC10028600DE0C8F800A0FFF7B4FD84
:10160000064604E0FFF7B0FD801B02281FD82868BB
:101610008007F7D42078000722D5824E834861697D
:10162000703671B101210160FFF79EFD074604E0AD
:10163000FFF79AFDC01B022809D830688007F7D54C
:101640000EE0C0F800A0FFF78FFD074605E082E03E
:10165000FFF78AFDC01B02287DD830688007F7D4C9
:101660002078400768D5DFF8BCB100270BF13C0BB0
:10167000DBF80000C0000BD4DBF8001041F0805113
:10168000CBF80010DBF80000012700F0805000903C
:10169000674E3068C00510D4306840F48070306008
:1016A000FFF762FD009005E0FFF75EFD0099401A2C
:1016B000022850D83068C005F6D55A4EA0686C365E
:1016C00001280FD00528306810D020F001003060CC
:1016D000306820F004003060A068B8B1FFF744FD26
:1016E00000900FE0306840F00100F4E740F00400A3
:1016F0003060F7E7FFF738FD0099411A41F2883072
:10170000814266D830688007F4D50EE0FFF72CFDE3
:10171000009007E0FFF728FD0099411A41F2883058
:10172000814256D830688007F4D42FB1DBF800101E
:1017300021F08051CBF80010A069C8B33949091DC8
:101740000968C1F3810102294AD00228504607D016
:10175000C8F8600000E03CE0FFF706FD04463BE00F
:101760004746C8F86000FFF7FFFC064605E000BFEB
:10177000FFF7FAFC801B02282BD828688001F7D4D9
:10178000D4E907010843A16A2A4A490802EB01414A
:10179000626A41EA8211084394F82C1040EA016120
:1017A000C9F8001001203866FFF7DEFC044606E0A9
:1017B00036E000BFFFF7D8FC001B022809D82868D4
:1017C0008001F7D52CE000BFFFF7CEFC001B0228FC
:1017D00002D90320BDE8F88F28688001F4D41FE007
:1017E0000128F7D0D9F80000E26900F480019142A5
:1017F00014D1226A00F03F0191420FD147F6C07127
:10180000626A0140914209D1A26A00F440319142DA
:1018100004D1E16A00F07060884201D00120D9E76C
:101820000020D7E70438024000004742800E4742BC
:10183000007000400000FFFF10B5401EB0F1807F37
:1018400001D3012010BD4FF0E02460610F2160172B
:1018500000F068FD0020A06107202061002010BD7D
:1018600070B590F83C20012A32D0012480F83C4029
:10187000022280F83D2003685A689D6822F07006B5
:101880000A6832435A60134B02689A4214D0B2F18C
:10189000804F11D0104B9A420ED0104B9A420BD071
:1018A0000F4B9A4208D00F4B9A4205D00E4B9A42EA
:1018B00002D00E4B9A4204D1496825F080031943A7
:1018C000916080F83D40002180F83C10084670BDD2
:1018D000022070BD000001400004004000080040EC
:1018E000000C00400004014000400140001800408E
:1018F00010B5040003D094F83D0010B107E00120BA
:1019000010BD002084F83C00204600F00DF80220B5
:1019100084F83D00211D206800F0C8FB012084F8F8
:101920003D00002010BD000008B50068064988424F
:1019300008D10648016841F010010160006800F01C
:101940001000009008BD0000001000404038024028
:10195000022180F83D1001688A6802F00702062A19
:1019600003D00A6842F001020A60012180F83D10AC
:1019700000207047022180F83D1001680A6A41F298
:1019800011131A4207D10A6A9B101A4203D10A683E
:1019900022F001020A60012180F83D10002070470A
:1019A00070B5040004D094F83900002510B106E0A9
:1019B000012070BD84F83850204600F023F8242020
:1019C00084F839002068C16821F40051C1602046C4
:1019D00000F0D0FB2068016921F49041016120688A
:1019E000416921F02A0141612068C16841F4005138
:1019F000C160E563202084F8390084F83A000020B3
:101A000070BD000010B586B0044614216846FEF78C
:101A100093FC14492068884221D1134800210268B0
:101A200042F010020260006800F0100005900E48BD
:101A30001438026842F001020260006800F0010000
:101A400005904FF4C06000900220CDE90101032011
:101A500003900720049069460448FFF791FA06B006
:101A600010BD000000100140443802400000024058
:101A70002DE9F843044690F839001F4616460D46F6
:101A8000202850D1B5B1AEB194F8380001284AD021
:101A9000012084F838004FF00008C4F83C80212071
:101AA00084F83900FFF760FBA6848146E68484F859
:101AB000388026E00120BDE8F883E08C401EE084F9
:101AC000A0684B46B0F5805F4FF000024FF08001F8
:101AD0002046009703D000F0E1FBE8B90DE000F0EC
:101AE000DDFBC8B928882168C0F308004860206978
:101AF00008B16D1C05E0AD1C03E0216815F8010B71
:101B00004860E08C0028D8D14B4600224021204676
:101B1000009700F0C3FB08B10320CCE7202084F835
:101B200039000020C7E70220C5E7FEE770B50122B3
:101B3000164C1602002531462046FFF710FB0A20FE
:101B4000FFF718F8002231462046FFF708FB66151C
:101B500031462046FFF7FEFA0028F9D003E00A20BC
:101B6000FFF708F86D1C31462046FFF7F3FA01280D
:101B7000F5D06808FEF75DFC9FED051B53EC112BBB
:101B8000FEF7E5FB41EC100B70BD000000080240C1
:101B9000C3F5285C8FC2D53F7FB50024154800945B
:101BA000019402941249039401604FF48031C0E91A
:101BB00001140461047680F820400F49C0E90A143A
:101BC0000125C561C46080F830404561FFF7A3F886
:101BD00008B1FEF7E7FF0420CDE90005694602944D
:101BE0000448FEF7E1FF002801D0FEF7DBFF7FBDD0
:101BF00000200140D80200200100000F10B59CB069
:101C00001C2216496846FEF77EFB0021684601F05B
:101C10005BF8134C11491C2220601C3107A8FEF709
:101C200072FB002107A801F04FF80C4960601C22EC
:101C300038310EA8FEF767FB00210EA801F044F82A
:101C40000649A0601C22543115A8FEF75CFB002158
:101C500015A801F039F8E0601CB010BD90370008FD
:101C6000000000202DE9F04387B014216846FEF7FC
:101C700063FB36480025016841F0100101600168EE
:101C800001F010010591016841F0800101600168D7
:101C900001F080010591016841F0010101600168D6
:101CA00001F001010591016841F002010160016844
:101CB00001F002010591016841F004010160006832
:101CC000234F00F004000590002204213846FFF75E
:101CD00046FADFF88080BE15002231464046FFF705
:101CE0003EFADFF87490002220214846FFF737FAC9
:101CF00001240420CDE9000469463846CDE90245B7
:101D0000FFF73EF92003CDE90005694648460295F4
:101D1000FFF736F9CDE9006469464046CDE9024552
:101D2000FFF72EF96002CDE90005694602944046AE
:101D3000FFF726F92020CDE9000469464846CDE9A1
:101D40000245FFF71DF907B0BDE8F08330380240C7
:101D50000010024000080240000402401CB50024AC
:101D60000E4800940C49019401605921C0E9011406
:101D70004FF6FF718461C160FFF7BAFD08B1FEF74D
:101D800011FF0094694605480194FFF769FD00289A
:101D900001D0FEF707FF1CBD00100040200300200B
:101DA0000C4810B50A4901604FF4165141600021FA
:101DB00081600C22C160C0E904128161C161FFF73A
:101DC000EFFD002803D0BDE81040FEF7EBBE10BDCC
:101DD0000010014060030020FEE7704786B013A0AA
:101DE00000F090FAFEF7F0FD4FF4FA6618A000F04C
:101DF00089FA02A8FEF740FE30B11BA000F082FA7B
:101E0000304600F055FFF1E70598FEF71FFB04464A
:101E10000D460498FEF71AFB41EC100B17A053EC8B
:101E2000102BCDE9004500F06DFAE9E74448543144
:101E300031B8DFBEABB6C8CEC2CAAAB6C8B4ABB85A
:101E4000D0C6F7CAFDBEDDB6C1C8A1A1A30D0A0068
:101E50006468743131B4ABB8D0C6F7B2E2CAD4BF4B
:101E6000AACABCA3A10D0A00B6C1C8A144485431F6
:101E700031D0C5CFA2CAA7B0DC0A0000B6C1C8A144
:101E80004448543131B3C9B9A6212D2D3ECAAAB652
:101E9000C8CEAA252E316620A3A5524820A3ACCED9
:101EA000C2B6C8CEAA20252E3166A1E6200A0000BF
:101EB0002DED048B13A000F025FA9FED199B1A4C11
:101EC0004FF4FA650FA000F01DFAFFF72FFEB0EEF9
:101ED000408AF0EE608A53EC182B14A000F012FA3E
:101EE00053EC192B51EC180BFEF7C4FA01D8012260
:101EF00000E0002220212046FFF731F9284600F0BB
:101F0000D7FEDFE7B3ACC9F9B2A8B4ABB8D0C6F717
:101F1000B2E2CAD4BFAACABCA3A10D0A0000000045
:101F2000000000000000344000040240B3ACC9F9D6
:101F3000B2A8B2E2CAD4BEE0C0EBCAC7203A256656
:101F400020636D0D0A0000004FF4FA6406A000F053
:101F5000D9F900F06FFE014609A000F0D3F9204640
:101F600000F0A6FEF2E70000B9E2D5D5B4ABB8D0D8
:101F7000C6F7B2E2CAD4BFAACABCA3A10D0A000028
:101F8000B9E2D5D5C7BFB6C8203A25640D0A00000E
:101F90004FF480540A4D4FF4FA660AA000F0B2F9EB
:101FA00021462846FFF7D6F8012807D000210CA0CB
:101FB00000F0A8F9304600F07BFEEEE70121F6E7DD
:101FC00000040240C8CBCCE5BAECCDE2B4ABB8D04B
:101FD000C6F7B2E2CAD4BFAACABCA3A10D0A0000C8
:101FE000CAC7B7F1D3D0C8CB203A25640D0A000088
:101FF00010B5FFF7BFF801F0F7FA012803D0BDE8EC
:10200000104001F083BA10BD70B592B0302168461F
:10201000FEF792F914210CA8FEF78EF91A48002554
:10202000016841F080510160006800F0805011901B
:102030001648016841F4404101600068022400F440
:102040004040119001200090000401908001CDE9F2
:1020500006400F260896D820CDE9090404200B90ED
:102060006846FFF73BFAFFF715F94FF4A050CDE9AA
:102070000E50E002CDE90C64109005210CA8FFF78A
:1020800041F912B070BD00004038024000700040BD
:102090000548016841F47001016003494FF0006098
:1020A000803908607047000088ED00E0F0B50268F4
:1020B000254C264D264E274F274B4FF0804CA042F3
:1020C00009D0604507D0A84205D0B04203D0B8423D
:1020D00001D0984204D122F0700E4A6842EA0E0202
:1020E000A0421BD0604519D0A84217D0B04215D0ED
:1020F000B84213D0984211D0184DA8420ED0184DB6
:10210000A8420BD0174DA84208D0174DA84205D0C1
:10211000164DA84202D0164DA84203D122F44075B4
:10212000CA682A434D6922F080022A4302608A6805
:10213000C2620A688262A04201D0984201D1096954
:10214000016301214161F0BD000001400004004035
:1021500000080040000C0040000401400040014025
:10216000004401400048014000180040001C0040AD
:10217000002000402DE9F041044600680169E26852
:1021800021F44051114301612169A068E2690843CB
:102190006169114308432168CA6849F20C639A4394
:1021A0000243CA6020684169A26921F44071114369
:1021B0004161E069192764253226B0F5004F354AA0
:1021C000354920684FF0000806D0884201D090427F
:1021D00036D1FFF741F935E0884201D0904202D173
:1021E000FFF73AF901E0FFF727F961684A18A0FB09
:1021F000070148EB0803FEF755F80146B0FBF5F080
:102200000201B1FBF5F06FF01803584301EB8000B9
:1022100006EBC000B0FBF5F000F0F80002EB400266
:10222000B1FBF5F0584301EB800006EBC000B0FBBA
:10223000F5F000F00700216810448860BDE8F081E7
:10224000FFF7FAF861688B0F8A00A0FB0701FEF721
:1022500029F80146B0FBF5F06FF01802504301EB8E
:10226000800006EB0010B0FBF5F000F0F002B1FBCF
:10227000F5F002EB0012B1FBF5F06FF018035843D4
:1022800001EB800006EB0010B0FBF5F000F00F0052
:10229000D1E7000000140140001001402DE9F04199
:1022A000984617460E460446069D1DE0681C1BD046
:1022B0002DB1FEF759FFA0EB0800A84214D9206801
:1022C000C16821F4D071C1602068416921F0010129
:1022D0004161202084F8390084F83A00002084F815
:1022E00038000320BDE8F0812068006836EA00006D
:1022F00004D00020B842D9D00020F3E70120F9E74C
:10230000FEE700000FB4054B10B503A9044A02987C
:1023100000F0EAF810BC5DF814FB0000192C00086E
:10232000800000200907090E002804DB00F1E020EE
:1023300080F80014704700F00F0000F1E02080F8F2
:10234000141D704702E008C8121F08C1002AFAD104
:1023500070477047002001E001C1121F002AFBD125
:10236000704700002DE9FF5F82B00021DDE90430F5
:10237000020DDDF840B0034318D044F61050A2F22D
:10238000FF3242431514119801281FD0A5EB0B0012
:10239000401C5FEA000A4FF000064E4FDFF838910C
:1023A000B046504615D5CAF1000413E01198012437
:1023B0004AA3012801D16FEA0B010298119AC0E9E2
:1023C0000031C0E9024206B0BDE8F09FCBF1000049
:1023D000DFE704460021404A491842EB0450CDE9AA
:1023E000001012E0E00707D032463B46404649461F
:1023F000FDF7ADFF8046894632463B4610461946FA
:10240000FDF7A5FF06460F466410002CEAD1DDE972
:102410000401DDE90023BAF1000F06DAFDF797FFAA
:1024200042464B46FDF793FF05E0FEF774F942463E
:102430004B46FEF770F904460E460022284BFEF785
:10244000F1F903D84FF0FF30014607E00022254B99
:1024500020463146FEF7B8F8FEF7CCF9102409E023
:10246000002C0ADB0A220023FDF71CFF039B3032FD
:102470001A55641E50EA0102F2D1641C039AC4F199
:1024800011031444119A012A03D0012208430DD1EB
:102490000AE0084304D000204FF0110B119072E7BE
:1024A000A3EB0B056D1E0DE05B4504DD4FF0000254
:1024B00005F1010504E003DA4FF00002A5F1010582
:1024C000002AECD002981199C0E90231C0E9004518
:1024D00079E70000000014400000F03F30000000E9
:1024E0000000F0430000E03F2DE9FF4F95B09B4610
:1024F0008946064600250FE2252877D10024274685
:10250000F84A0121059400E0044316F8013F203BFE
:1025100001FA03F01042F7D130782A2811D06FF079
:102520002F033078A0F13002092A16D8059A44F01A
:10253000020402EB820203EB42021044761C059077
:10254000EFE759F8042B0592002A03DA504244F4CD
:102550000054059044F00204761C30782E2816D1E1
:1025600016F8010F44F004042A280DD06FF02F0252
:102570003078A0F13003092B09D807EB870302EB71
:102580004303C718761CF3E759F8047B761C3078B0
:102590006C280FD006DC4C2817D068280DD06A288C
:1025A00014D104E0742810D07A280FD10DE044F43F
:1025B00000140AE044F4801401E044F440147278FA
:1025C000824202D104F58014761C761C307866288D
:1025D0000BD013DC582877D009DC002875D04528AB
:1025E000F6D04628F4D047281AD19DE118E0632898
:1025F00035D0642879D0652812D195E1702873D040
:1026000008DC6728F1D069286FD06E280DD06F28BC
:1026100006D1B5E073282CD0752875D0782874D0F1
:102620005A46179990476D1C75E1C4F30250022871
:1026300009D003280DD0D9F8001004280DD00D6062
:1026400009F1040967E1D9F80010EA17C1E900525D
:10265000F6E7D9F800100D80F2E70D70F0E719F8F1
:10266000041B8DF8001000208DF80100EA460120BF
:1026700003E059F804AB4FF0FF3061074FF0000161
:1026800002D40DE008F101018846B9420FDA804515
:10269000F8DB1AF808100029F4D108E008F101016C
:1026A00088468142FADB1AF808100029F6D105980D
:1026B0005B46A0EB080721463846179A00F094FACB
:1026C000284400EB080507E04DE029E10DE01AF889
:1026D000010B5A4617999047B8F10108F7D25B46AB
:1026E00021463846179A13E142E00A220092C4F3C9
:1026F00002524FF0000A022A08D059F804CB032AEC
:102700004FEAEC710AD00DE029E02AE009F1070157
:1027100021F00702F2E802C1914609E00FFA8CFCB1
:102720004FEAEC71042A03D14FFA8CFC4FEAEC71AA
:10273000002907DA0A460021DCF1000C61EB0201F6
:102740002D2202E0220504D52B228DF8042001223F
:1027500003E0E20701D02022F7E7904659E00A2182
:1027600002E010220DE010214FF0000A00910BE072
:1027700010224FF0000A44F004040827009203E0FE
:1027800008224FF0000A0092C4F30252022A05D038
:1027900059F804CB0021032A08D009E009F1070108
:1027A00021F00702F2E802C1914605E01FFA8CFC15
:1027B000042A01D10CF0FF0C4FF00008220728D5A5
:1027C000702806D0009B83F0100353EA0A0305D05B
:1027D0000EE040228DF80420012208E05CEA0102AC
:1027E00006D030228DF804208DF805000222904694
:1027F000009B83F0080353EA0A030AD15CEA010252
:1028000001D1620705D530228DF804204FF0010870
:102810007F1E582804D034A003900EA802900DE02B
:1028200036A0F9E753466046009AFDF73BFD844623
:102830000398825C0298401E029002705CEA0100DC
:10284000F0D1029806A9081A00F1200A600702D503
:1028500024F4803400E00127574502DDA7EB0A008D
:1028600000E0002000EB0A01009005984144401A66
:102870000590E00306D45B462146179A059800F0C0
:10288000B3F90544002706E001A85A46C05D179930
:1028900090476D1C7F1C4745F6DBE0030CD55B467B
:1028A0002146179A059800F09FF9054404E030206E
:1028B0005A46179990476D1C0099481E00900029B0
:1028C000F5DC08E0029802995A460078491C02910A
:1028D000179990476D1CBAF10001AAF1010AF1DCC9
:1028E00065E10000092801003031323334353637D4
:1028F000383961626364656600000000303132334C
:1029000034353637383941424344454600000000EB
:1029100000F058F90544761C307800287FF4ECADBF
:1029200019B02846BDE8F08F620700D4062709F1E8
:10293000070222F0070CFCE80223E14603F00048FE
:102940005FEA080C02D00FF2702C0DE05FEA045C25
:1029500002D50FF2682C07E05FEAC47C02D00FF2C8
:10296000602C01E0AFF2700C4FF0FF3823F0004311
:10297000CDF850C065280CD006DC452809D0462883
:102980001DD047283DD13DE0662818D067287ED16C
:1029900038E00021112F01DB112000E0781CCDE987
:1029A000000106A90EA8FFF7DDFCDDE90F010E9A74
:1029B00003910021009207F1010A04914DE04FF0CC
:1029C00000400097CDE9011006A90EA8FFF7CAFC48
:1029D000DDE90F0203920E9B11990022DDF80CA095
:1029E0000093049211B9791C00EB010AB7EB0A00BD
:1029F00004D4C0F1FF3007F1010A0490AAEB0700EC
:102A0000019044E0012F00DA01270021112F01DDA0
:102A1000112000E03846CDE9000106A90EA8FFF715
:102A2000A1FCDDE90F010E9A0391002104910092AF
:102A3000BA4621070CD40399514500DA8A46BAF107
:102A4000010F05DD009AAAF10101515C302908D07F
:102A5000B84202DA10F1040F06DA0121CDE90110C3
:102A600015E0AAF10101E9E7002805DC0499014419
:102A70000491AAEB000102E0411C514500DD8A46A9
:102A80000499401A401C01904FF00040029020072A
:102A900004D40198504501DBCDF8048000208DF866
:102AA0004F0002980DF14F07B0F1004F25D02B20B9
:102AB0000E9002984FF0020800280CDA4042029073
:102AC0002D200E9007E00A210298FDF7EBFC303133
:102AD000029007F8011DB8F10001A8F10108F2DC2D
:102AE00002980028EFD1791E0E980870307800F017
:102AF000200040F0450007F8020D12A8C01B00F1AD
:102B000007081498007800B1012000EB0A01019831
:102B100001EBE07105984144401A401E0590E00326
:102B200006D45B462146179A059800F05DF80544E7
:102B30001498007818B15A46179990476D1CE00315
:102B400024D55B462146179A059800F04DF80544B8
:102B50001CE00498002807DBDDE90301884203DD5F
:102B60000098405C179901E0179930205A46904729
:102B7000049805F10105401C04900198401E019045
:102B800004D12E205A46179990476D1CBAF10001C6
:102B9000AAF1010ADDDC05E017F8010B5A46179986
:102BA00090476D1CB8F10001A8F10108F4DC5B4608
:102BB0002146179A0598ABE62D0000002B00000077
:102BC000200000002DE9F041044600251E4617466E
:102BD000880404D405E039462020B0476D1C641EEB
:102BE000F9D52846BDE8F0812DE9F04104460025DD
:102BF0001E469046C80301D5302700E020278804F0
:102C000004D505E041463846B0476D1C641EF9D531
:102C10002846BDE8F081000038B504468DF8000074
:102C20000223012269460248FEF722FF204638BDF2
:102C30006003002010B500240C48FEF719F932217A
:102C40000A48FEF7C3F80948FEF760F880050AD580
:102C50000648FEF75DF8C0EB0020C11700EB1150ED
:102C60000013C0F1FF04E0B210BD0000D802002044
:102C7000FEF788FAFFF7C8F9FEF7F4FFFFF790F8C0
:102C8000FFF76CF8FEF788FF03A0FFF73BFBFEF7AA
:102C9000B5FF00F014F8FEE7B3AC616161A3A10DCC
:102CA0000A00000001460020842900D0C81C70479B
:102CB00010B500B9012000F01DFB002010BD10B5BB
:102CC00000F03EFB002010BD7FB50D460446416973
:102CD000B0F9080081B1A16971B1FFF7E3FFD4E950
:102CE00005128DE80700D4E900102B46226900F098
:102CF00050FC039004B070BDFFF7D4FF03A9CDE9E9
:102D00000001208A2B4682B2D4E9001000F014FCA6
:102D1000012801D00020EDE70398EBE72DE9F04111
:102D2000184C0F46054666692068001D00F01EFA23
:102D300038B9206890F82C1001208840A16981439F
:102D4000A161681C07D137B12168BDE8F0410E4888
:102D5000091D00F04FBA20683544B542456021682E
:102D600005D2A068BDE8F041091D00F02BBA6068EB
:102D7000091D00F027FA206B854200D22563BDE8CB
:102D8000F0810000200000207C0400202DE9F041AB
:102D9000054600F03BFA2E4C2069401C206120685B
:102DA0002C4F10B1E06940B32DE025602069012867
:102DB00029D1002606EB860007EB800000F0F4F92D
:102DC000761C072EF6D323488C3000F0EDF921480D
:102DD000A03000F0E9F91F48B43000F0E5F91D48D3
:102DE000C83000F0E1F91B48DC3000F0DDF919488B
:102DF0008C3060601430A06005E02068E96AC06A29
:102E0000884200D82560E06A401CE062E96A01203F
:102E1000A26988401043A06101EB810007EB8000AC
:102E2000291D00F0E7F900F011FAE06900280CD044
:102E30002068E96AC06A884207D207494FF080508B
:102E40000860BFF34F8FBFF36F8FBDE8F0810000C4
:102E500020000020A003002004ED00E010B504468F
:102E600090F8510058B101280CD002280FD0502002
:102E700080F31188BFF34F8FBFF36F8FFEE7206B96
:102E800000F0F8F92046BDE8104000F0F3B910BD9D
:102E900010484FF47051420706D0C01D0D4920F074
:102EA0000700411AC1F570510B4A00230144C2E9E1
:102EB00000030839103A21F0070111604B600B60E4
:102EC0000B1AC0E9001393604FF000405360D060CC
:102ED00070470000900400206C000020144E154C38
:102EE000A6F1C8074FF08058DFF84C9012E000BF01
:102EF00000F08CF9F068C568281D00F037F92069EA
:102F0000401E2061E068401EE06000F09FF9284606
:102F1000FFF7A4FFE0680028EAD138680128F9D952
:102F2000C9F80080BFF34F8FBFF36F8FF2E7000047
:102F3000680400202000002004ED00E02DE9F047A7
:102F40009A46DDE9098481466FF00303206B03EBA9
:102F500082021044089E20F00707780707D050200F
:102F600080F31188BFF34F8FBFF36F8FFEE700250B
:102F700061B1002023180A5C83F834200A5C12B186
:102F8000401C1028F6D384F8435001E084F83450F4
:102F9000072E00D30626E662C4E91165201D00F065
:102FA0000EF904F1180000F00AF92461C6F10700D7
:102FB0006462A061E56484F8505052464946384640
:102FC00000F0BEF82060B8F1000F01D0C8F8004052
:102FD000BDE8F08730B5114900E011460A68824229
:102FE000FBD34B685C18844203D1406818444860A6
:102FF000084643681C18944209D1084C103C2468C8
:10300000A24209D052681A4442600A6812680260FB
:10301000814200D0086030BD0460F9E76C000020F8
:1030200006484168096829B14168C968C9684968A2
:10303000016370474FF0FF31FAE7000020000020E5
:1030400008484068401C4FF0500080F3118804D0BD
:10305000BFF34F8FBFF36F8FFEE7BFF34F8FBFF309
:103060006F8FFEE7740000202DE9F0410546002730
:1030700000F09CF9314E306808B9FFF709FFF0689D
:1030800005424BD1C5B3083568070ED005F00700DF
:10309000C0F108000544680707D0502080F311886C
:1030A000BFF34F8FBFF36F8FFEE72DB3706885427C
:1030B00034D82248103001460C6801E020460C4606
:1030C0006168A94202D221680029F7D131688C4297
:1030D00024D007682168016060680837411B102907
:1030E0000FD96019420708D0502080F31188BFF330
:1030F0004F8FBFF36F8FFEE710E041606560FFF711
:1031000069FF61687068401A7060B268904200D2CE
:10311000B060F06801430020C4E9000100F0D6FA75
:10312000780707D0502080F31188BFF34F8FBFF38B
:103130006F8FFEE73846BDE8F08100005C0000209C
:1031400010B5031F4FF080741C601B1F21F001019C
:103150001960191F044B0B6014390A60091F6FF0C6
:10316000020244380A6010BD41300008D0E9013243
:1031700001699A60D0E901235A604A68824201D10C
:1031800082684A60002202610868401E0860086880
:1031900070470000034B036003F154000860802077
:1031A000106070478400002000F108014FF0FF32EA
:1031B000C0E90112C1600161002101607047002176
:1031C0000161704730B50B685A1C02D000F108024B
:1031D00002E0026904E02246546825689D42FAD95B
:1031E00053684B6099608A60516008610168491CAE
:1031F000016030BD42684A6093688B609368596093
:10320000916008610168491C01607047502080F39B
:103210001188BFF34F8FBFF36F8F0A494868401C76
:10322000486001280CD10848006810F0FF0F07D053
:10323000502080F31188BFF34F8FBFF36F8FFEE7ED
:10324000704700007400002004ED00E00849486861
:1032500028B1401E486001D180F31188704750208A
:1032600080F31188BFF34F8FBFF36F8FFEE700002D
:103270007400002070B5002827D0144DA0F1080478
:103280006168E868014207D1502080F31188BFF3DC
:103290004F8FBFF36F8FFEE722683AB1502080F363
:1032A0001188BFF34F8FBFF36F8FFEE781436160DB
:1032B00000F07CF860686968084468602046FFF7A1
:1032C00089FEBDE8704000F001BA70BD5C000020CE
:1032D0004FF0E02000210161816105494FF47A72CD
:1032E0000968B1FBF2F1491E416107210161704794
:1032F0001C00002010B5020014D00F48806B38B1BC
:10330000502080F31188BFF34F8FBFF36F8FFEE71C
:1033100000F04CF800211046FFF700FD00F0D6F950
:10332000002807D105494FF080500860BFF34F8F48
:10333000BFF36F8F10BD00002000002004ED00E0FF
:1033400010B586B00024039405AA04A903A8049428
:10335000FFF720FFDDE903010094CDE90110002310
:103360000EA11048059A00F014F90F49002848638F
:1033700011D0502080F31188BFF34F8FBFF36F8FB0
:103380004FF0FF3008630120C8614C6106B0BDE812
:10339000104000F041B806B010BD000049444C4553
:1033A00000000000DD2E0008200000200248816B94
:1033B000491C816370470000200000201448816B85
:1033C00011B1012141627047002141628169B1FA66
:1033D00081F1C1F11F0101EB81020E4951F8223048
:1033E0006BB101EB820101F108034A6852684A603F
:1033F0009A4201D152684A60D168016070475020FA
:1034000080F31188BFF34F8FBFF36F8FFEE700008B
:1034100020000020A00300201CB537480168374A6F
:10342000914207D1502080F31188BFF34F8FBFF333
:103430006F8FFEE700683149491E884207D150204E
:1034400080F31188BFF34F8FBFF36F8FFEE72C49D6
:1034500008780190FF20087008788DF800009DF82A
:1034600000009DF8002000F0F000904207D05020AE
:1034700080F31188BFF34F8FBFF36F8FFEE79DF886
:103480000000204B00F0500018700720986005E005
:103490009DF8002052008DF80020401E9DF800206D
:1034A0001206F5D49860032807D0502080F31188C5
:1034B000BFF34F8FBFF36F8FFEE74FF440709860FC
:1034C000019808700C482030016841F470010160D7
:1034D000016841F070410160FFF7FAFE002058607A
:1034E000FCF792FE0848016841F040410160FCF79A
:1034F00077FE00201CBD000000ED00E071C20F410E
:1035000000E400E07400002034EF00E010B550202B
:1035100080F31188BFF34F8FBFF36F8F00F072F805
:1035200018B104494FF080500860002080F31188E2
:1035300010BD000004ED00E02DE9FF5F8346DDE9EA
:103540000E87994616468A469000FFF78DFD0500C6
:103550001CD05420FFF788FD040014D00020256300
:1035600084F85100CDE90240CDE900874B46324650
:1035700051465846FFF7E2FC2046FFF707FC0120C2
:1035800004B0BDE8F09F2846FFF774FE4FF0FF300F
:10359000F6E7F0B585B0DDE90B640A9DA6B1DCB1B4
:1035A000542700972663022684F85160002604AF52
:1035B000CDE90246CDE90057FFF7C0FC2046FFF7F2
:1035C000E5FB049805B0F0BD502080F31188BFF3EF
:1035D0004F8FBFF36F8FFEE7502080F31188BFF34A
:1035E0004F8FBFF36F8FFEE70548C16919B1806B3C
:1035F00018B100207047012070470220704700007A
:10360000200000202DE9F0412E4C0027A06B40B196
:10361000206A401C2062606A00B101273846BDE87C
:10362000F0816669761C666113D16068006838B104
:10363000502080F31188BFF34F8FBFF36F8FFEE7E9
:103640006068A1686160A060A06A401CA062FFF78A
:10365000E7FC206BDFF87080864209D36068006861
:1036600080B16068C068C568686886420DD2206312
:103670002068C06A00EB800158F821000128CAD9EF
:103680000127C8E74FF0FF30F1E7281DFFF76EFD77
:10369000A86A18B105F11800FFF768FDE86A012172
:1036A000A26981401143A16100EB800108EB810018
:1036B000291DFFF79FFDE86A2168C96A8842CDD3BA
:1036C0000127CBE720000020A00300202DE9F047D0
:1036D0002C4D00242746A86B38B1FFF797FDA86B47
:1036E000401EA863A86B40B146E0502080F31188CB
:1036F000BFF34F8FBFF36F8FFEE72969224E012082
:10370000D1B3A6F1B40980463068E8B1F068C46866
:1037100004F11800FFF72AFD201DFFF727FDE06ADE
:10372000AA6908FA00F11143A96100EB800109EBD5
:103730008100211DFFF75EFDE06A2968C96A8842A1
:10374000E2D3C5F82480DFE70CB1FFF769FC2C6AEF
:1037500044B14646FFF756FF00B16E62641EF9D1D0
:1037600000202862686A38B10849012738070860D4
:10377000BFF34F8FBFF36F8FFFF768FD3846BDE88B
:10378000F0870000200000205404002004ED00E039
:1037900040380008B11E0008FFFF000000000000D4
:1037A0008000000000000000000000003438000825
:1037B000DD1D000802000000000000008000000085
:1037C000000000000000000018380008491F000831
:1037D000FDFF00000000000080000000000000006D
:1037E0000000000024380008911F0008FDFF0000C1
:1037F0000000000080000000000000000000000049
:103800000000000000000000010203040607080990
:1038100000000000010203046C696768745461735E
:103820006B30330070656F706C655461736B30344E
:103830000000000044485431315461736B000000B3
:10384000485230345461736B000000006C3800083B
:10385000000000208400000044230008F038000825
:10386000840000200C4400005423000800000000E5
:103870000000000000000000000000000100000047
:1038800010000000000000000024F4000000000010
:103890000000000000000000000000000000000028
:1038A0000000000000000000000000000000000018
:1038B0000000000000000000000000000000000008
:1038C00000000000000000000000000000000000F8
:1038D00000000000000000000000000000000000E8
:1038E00000000000AAAAAAAA000000000000000030
:04000005080001AD41
:00000001FF
